{
  "contractName": "Vending",
  "abi": [
    {
      "inputs": [],
      "stateMutability": "nonpayable",
      "type": "constructor"
    },
    {
      "inputs": [
        {
          "internalType": "address",
          "name": "",
          "type": "address"
        }
      ],
      "name": "donutBalance",
      "outputs": [
        {
          "internalType": "uint256",
          "name": "",
          "type": "uint256"
        }
      ],
      "stateMutability": "view",
      "type": "function"
    },
    {
      "inputs": [],
      "name": "manager",
      "outputs": [
        {
          "internalType": "address",
          "name": "",
          "type": "address"
        }
      ],
      "stateMutability": "view",
      "type": "function"
    },
    {
      "inputs": [],
      "name": "getBalanceOfVendingMachine",
      "outputs": [
        {
          "internalType": "uint256",
          "name": "",
          "type": "uint256"
        }
      ],
      "stateMutability": "view",
      "type": "function"
    },
    {
      "inputs": [
        {
          "internalType": "uint256",
          "name": "amount",
          "type": "uint256"
        }
      ],
      "name": "restock",
      "outputs": [],
      "stateMutability": "nonpayable",
      "type": "function"
    },
    {
      "inputs": [
        {
          "internalType": "uint256",
          "name": "quantiy",
          "type": "uint256"
        }
      ],
      "name": "purchaseDonut",
      "outputs": [],
      "stateMutability": "payable",
      "type": "function"
    }
  ],
  "bytecode": "0x608060405234801561001057600080fd5b50336000806101000a81548173ffffffffffffffffffffffffffffffffffffffff021916908373ffffffffffffffffffffffffffffffffffffffff1602179055506064600160003073ffffffffffffffffffffffffffffffffffffffff1673ffffffffffffffffffffffffffffffffffffffff168152602001908152602001600020819055506107e9806100a56000396000f3fe60806040526004361061004a5760003560e01c8063061aef731461004f578063198100c51461007a578063481c6a75146100b75780637059312a146100e2578063c21a702a146100fe575b600080fd5b34801561005b57600080fd5b50610064610127565b6040516100719190610431565b60405180910390f35b34801561008657600080fd5b506100a1600480360381019061009c91906104af565b61016e565b6040516100ae9190610431565b60405180910390f35b3480156100c357600080fd5b506100cc610186565b6040516100d991906104eb565b60405180910390f35b6100fc60048036038101906100f79190610532565b6101aa565b005b34801561010a57600080fd5b5061012560048036038101906101209190610532565b610331565b005b6000600160003073ffffffffffffffffffffffffffffffffffffffff1673ffffffffffffffffffffffffffffffffffffffff16815260200190815260200160002054905090565b60016020528060005260406000206000915090505481565b60008054906101000a900473ffffffffffffffffffffffffffffffffffffffff1681565b671bc16d674ec80000816101be919061058e565b341015610200576040517f08c379a00000000000000000000000000000000000000000000000000000000081526004016101f790610653565b60405180910390fd5b80600160003073ffffffffffffffffffffffffffffffffffffffff1673ffffffffffffffffffffffffffffffffffffffff168152602001908152602001600020541015610282576040517f08c379a0000000000000000000000000000000000000000000000000000000008152600401610279906106bf565b60405180910390fd5b80600160003073ffffffffffffffffffffffffffffffffffffffff1673ffffffffffffffffffffffffffffffffffffffff16815260200190815260200160002060008282546102d191906106df565b9250508190555080600160003373ffffffffffffffffffffffffffffffffffffffff1673ffffffffffffffffffffffffffffffffffffffff16815260200190815260200160002060008282546103279190610713565b9250508190555050565b60008054906101000a900473ffffffffffffffffffffffffffffffffffffffff1673ffffffffffffffffffffffffffffffffffffffff163373ffffffffffffffffffffffffffffffffffffffff16146103bf576040517f08c379a00000000000000000000000000000000000000000000000000000000081526004016103b690610793565b60405180910390fd5b80600160003073ffffffffffffffffffffffffffffffffffffffff1673ffffffffffffffffffffffffffffffffffffffff168152602001908152602001600020600082825461040e9190610713565b9250508190555050565b6000819050919050565b61042b81610418565b82525050565b60006020820190506104466000830184610422565b92915050565b600080fd5b600073ffffffffffffffffffffffffffffffffffffffff82169050919050565b600061047c82610451565b9050919050565b61048c81610471565b811461049757600080fd5b50565b6000813590506104a981610483565b92915050565b6000602082840312156104c5576104c461044c565b5b60006104d38482850161049a565b91505092915050565b6104e581610471565b82525050565b600060208201905061050060008301846104dc565b92915050565b61050f81610418565b811461051a57600080fd5b50565b60008135905061052c81610506565b92915050565b6000602082840312156105485761054761044c565b5b60006105568482850161051d565b91505092915050565b7f4e487b7100000000000000000000000000000000000000000000000000000000600052601160045260246000fd5b600061059982610418565b91506105a483610418565b92508282026105b281610418565b915082820484148315176105c9576105c861055f565b5b5092915050565b600082825260208201905092915050565b7f596f75206d757374207061792061746c6561737420322045544820706572206460008201527f6f6e757400000000000000000000000000000000000000000000000000000000602082015250565b600061063d6024836105d0565b9150610648826105e1565b604082019050919050565b6000602082019050818103600083015261066c81610630565b9050919050565b7f576520646f6e2774206861766520656e6f75676820646f6e7574730000000000600082015250565b60006106a9601b836105d0565b91506106b482610673565b602082019050919050565b600060208201905081810360008301526106d88161069c565b9050919050565b60006106ea82610418565b91506106f583610418565b925082820390508181111561070d5761070c61055f565b5b92915050565b600061071e82610418565b915061072983610418565b92508282019050808211156107415761074061055f565b5b92915050565b7f596f7520617265206e6f742061626c6520746f20726573746f636b0000000000600082015250565b600061077d601b836105d0565b915061078882610747565b602082019050919050565b600060208201905081810360008301526107ac81610770565b905091905056fea2646970667358221220914fb90dab0aaf54c6801c82c46a15fcbd6ecc01dd32fe2c303307bc3c63809b64736f6c63430008110033",
  "immutableReferences": {},
  "source": "// SPDX - License - Identifier: MIT\r\n\r\n/*\r\nAgenda:\r\n    Make a vender machine for donut so that peoples can purchase donut by spending eths and only manager have the \r\n    rights to restock and check balance in vending machine\r\n*/\r\n\r\npragma solidity ^0.8.17;\r\n\r\ncontract Vending\r\n{\r\n    // state variable \r\n    address public manager;\r\n    mapping (address => uint) public donutBalance;\r\n\r\n    constructor()\r\n    {\r\n        manager = msg.sender;\r\n        donutBalance[address(this)] = 100;\r\n    }\r\n\r\n    function getBalanceOfVendingMachine() public view returns(uint)\r\n    {\r\n        return donutBalance[address(this)];\r\n    }\r\n\r\n    // Restock the vending machine by manager\r\n    function restock(uint amount) public\r\n    {\r\n        require(msg.sender == manager, \"You are not able to restock\");\r\n        donutBalance[address(this)] += amount;\r\n    }\r\n\r\n    // Purchase donut from vending machine, where minimum donut costing is 1 eth\r\n    function purchaseDonut(uint quantiy) public payable\r\n    {\r\n        require(msg.value >= quantiy * 2 ether, \"You must pay atleast 2 ETH per donut\");\r\n        require(donutBalance[address(this)] >= quantiy, \"We don't have enough donuts\");\r\n        donutBalance[address(this)] -= quantiy;\r\n        donutBalance[msg.sender] += quantiy;\r\n\r\n    }\r\n}",
  "sourcePath": "C:\\Users\\HP\\OneDrive\\Desktop\\Solidity\\Vending_Machine_Project\\contracts\\program.sol",
  "compiler": {
    "name": "solc",
    "version": "0.8.17+commit.8df45f5f.Emscripten.clang"
  },
  "schemaVersion": "3.4.11",
  "updatedAt": "2022-12-04T23:50:56.553Z",
  "devdoc": {
    "kind": "dev",
    "methods": {},
    "version": 1
  },
  "userdoc": {
    "kind": "user",
    "methods": {},
    "version": 1
  }
}